{
  "_format": "hh-sol-artifact-1",
  "contractName": "Domains",
  "sourceName": "contracts/Domains.sol",
  "abi": [
    {
      "inputs": [
        {
          "internalType": "string",
          "name": "_tld",
          "type": "string"
        }
      ],
      "stateMutability": "payable",
      "type": "constructor"
    },
    {
      "inputs": [],
      "name": "AlreadyRegistered",
      "type": "error"
    },
    {
      "inputs": [
        {
          "internalType": "string",
          "name": "name",
          "type": "string"
        }
      ],
      "name": "InvalidName",
      "type": "error"
    },
    {
      "inputs": [],
      "name": "Unauthorized",
      "type": "error"
    },
    {
      "anonymous": false,
      "inputs": [
        {
          "indexed": true,
          "internalType": "address",
          "name": "owner",
          "type": "address"
        },
        {
          "indexed": true,
          "internalType": "address",
          "name": "approved",
          "type": "address"
        },
        {
          "indexed": true,
          "internalType": "uint256",
          "name": "tokenId",
          "type": "uint256"
        }
      ],
      "name": "Approval",
      "type": "event"
    },
    {
      "anonymous": false,
      "inputs": [
        {
          "indexed": true,
          "internalType": "address",
          "name": "owner",
          "type": "address"
        },
        {
          "indexed": true,
          "internalType": "address",
          "name": "operator",
          "type": "address"
        },
        {
          "indexed": false,
          "internalType": "bool",
          "name": "approved",
          "type": "bool"
        }
      ],
      "name": "ApprovalForAll",
      "type": "event"
    },
    {
      "anonymous": false,
      "inputs": [
        {
          "indexed": true,
          "internalType": "address",
          "name": "from",
          "type": "address"
        },
        {
          "indexed": true,
          "internalType": "address",
          "name": "to",
          "type": "address"
        },
        {
          "indexed": true,
          "internalType": "uint256",
          "name": "tokenId",
          "type": "uint256"
        }
      ],
      "name": "Transfer",
      "type": "event"
    },
    {
      "inputs": [
        {
          "internalType": "address",
          "name": "to",
          "type": "address"
        },
        {
          "internalType": "uint256",
          "name": "tokenId",
          "type": "uint256"
        }
      ],
      "name": "approve",
      "outputs": [],
      "stateMutability": "nonpayable",
      "type": "function"
    },
    {
      "inputs": [
        {
          "internalType": "address",
          "name": "owner",
          "type": "address"
        }
      ],
      "name": "balanceOf",
      "outputs": [
        {
          "internalType": "uint256",
          "name": "",
          "type": "uint256"
        }
      ],
      "stateMutability": "view",
      "type": "function"
    },
    {
      "inputs": [
        {
          "internalType": "uint256",
          "name": "",
          "type": "uint256"
        },
        {
          "internalType": "uint256",
          "name": "",
          "type": "uint256"
        }
      ],
      "name": "colors",
      "outputs": [
        {
          "internalType": "string",
          "name": "",
          "type": "string"
        }
      ],
      "stateMutability": "view",
      "type": "function"
    },
    {
      "inputs": [
        {
          "internalType": "string",
          "name": "",
          "type": "string"
        }
      ],
      "name": "domains",
      "outputs": [
        {
          "internalType": "address",
          "name": "",
          "type": "address"
        }
      ],
      "stateMutability": "view",
      "type": "function"
    },
    {
      "inputs": [
        {
          "internalType": "string",
          "name": "name",
          "type": "string"
        }
      ],
      "name": "getAddress",
      "outputs": [
        {
          "internalType": "address",
          "name": "",
          "type": "address"
        }
      ],
      "stateMutability": "view",
      "type": "function"
    },
    {
      "inputs": [],
      "name": "getAllNames",
      "outputs": [
        {
          "internalType": "string[]",
          "name": "",
          "type": "string[]"
        }
      ],
      "stateMutability": "view",
      "type": "function"
    },
    {
      "inputs": [
        {
          "internalType": "uint256",
          "name": "tokenId",
          "type": "uint256"
        }
      ],
      "name": "getApproved",
      "outputs": [
        {
          "internalType": "address",
          "name": "",
          "type": "address"
        }
      ],
      "stateMutability": "view",
      "type": "function"
    },
    {
      "inputs": [
        {
          "internalType": "string",
          "name": "name",
          "type": "string"
        }
      ],
      "name": "getRecord",
      "outputs": [
        {
          "internalType": "string",
          "name": "",
          "type": "string"
        }
      ],
      "stateMutability": "view",
      "type": "function"
    },
    {
      "inputs": [
        {
          "internalType": "address",
          "name": "owner",
          "type": "address"
        },
        {
          "internalType": "address",
          "name": "operator",
          "type": "address"
        }
      ],
      "name": "isApprovedForAll",
      "outputs": [
        {
          "internalType": "bool",
          "name": "",
          "type": "bool"
        }
      ],
      "stateMutability": "view",
      "type": "function"
    },
    {
      "inputs": [],
      "name": "isOwner",
      "outputs": [
        {
          "internalType": "bool",
          "name": "",
          "type": "bool"
        }
      ],
      "stateMutability": "view",
      "type": "function"
    },
    {
      "inputs": [],
      "name": "name",
      "outputs": [
        {
          "internalType": "string",
          "name": "",
          "type": "string"
        }
      ],
      "stateMutability": "view",
      "type": "function"
    },
    {
      "inputs": [
        {
          "internalType": "uint256",
          "name": "",
          "type": "uint256"
        }
      ],
      "name": "names",
      "outputs": [
        {
          "internalType": "string",
          "name": "",
          "type": "string"
        }
      ],
      "stateMutability": "view",
      "type": "function"
    },
    {
      "inputs": [],
      "name": "owner",
      "outputs": [
        {
          "internalType": "address payable",
          "name": "",
          "type": "address"
        }
      ],
      "stateMutability": "view",
      "type": "function"
    },
    {
      "inputs": [
        {
          "internalType": "uint256",
          "name": "tokenId",
          "type": "uint256"
        }
      ],
      "name": "ownerOf",
      "outputs": [
        {
          "internalType": "address",
          "name": "",
          "type": "address"
        }
      ],
      "stateMutability": "view",
      "type": "function"
    },
    {
      "inputs": [
        {
          "internalType": "string",
          "name": "name",
          "type": "string"
        }
      ],
      "name": "price",
      "outputs": [
        {
          "internalType": "uint256",
          "name": "",
          "type": "uint256"
        }
      ],
      "stateMutability": "pure",
      "type": "function"
    },
    {
      "inputs": [
        {
          "internalType": "string",
          "name": "",
          "type": "string"
        }
      ],
      "name": "records",
      "outputs": [
        {
          "internalType": "string",
          "name": "",
          "type": "string"
        }
      ],
      "stateMutability": "view",
      "type": "function"
    },
    {
      "inputs": [
        {
          "internalType": "string",
          "name": "name",
          "type": "string"
        }
      ],
      "name": "register",
      "outputs": [],
      "stateMutability": "payable",
      "type": "function"
    },
    {
      "inputs": [
        {
          "internalType": "address",
          "name": "from",
          "type": "address"
        },
        {
          "internalType": "address",
          "name": "to",
          "type": "address"
        },
        {
          "internalType": "uint256",
          "name": "tokenId",
          "type": "uint256"
        }
      ],
      "name": "safeTransferFrom",
      "outputs": [],
      "stateMutability": "nonpayable",
      "type": "function"
    },
    {
      "inputs": [
        {
          "internalType": "address",
          "name": "from",
          "type": "address"
        },
        {
          "internalType": "address",
          "name": "to",
          "type": "address"
        },
        {
          "internalType": "uint256",
          "name": "tokenId",
          "type": "uint256"
        },
        {
          "internalType": "bytes",
          "name": "_data",
          "type": "bytes"
        }
      ],
      "name": "safeTransferFrom",
      "outputs": [],
      "stateMutability": "nonpayable",
      "type": "function"
    },
    {
      "inputs": [
        {
          "internalType": "address",
          "name": "operator",
          "type": "address"
        },
        {
          "internalType": "bool",
          "name": "approved",
          "type": "bool"
        }
      ],
      "name": "setApprovalForAll",
      "outputs": [],
      "stateMutability": "nonpayable",
      "type": "function"
    },
    {
      "inputs": [
        {
          "internalType": "string",
          "name": "name",
          "type": "string"
        },
        {
          "internalType": "string",
          "name": "record",
          "type": "string"
        }
      ],
      "name": "setRecord",
      "outputs": [],
      "stateMutability": "nonpayable",
      "type": "function"
    },
    {
      "inputs": [
        {
          "internalType": "bytes4",
          "name": "interfaceId",
          "type": "bytes4"
        }
      ],
      "name": "supportsInterface",
      "outputs": [
        {
          "internalType": "bool",
          "name": "",
          "type": "bool"
        }
      ],
      "stateMutability": "view",
      "type": "function"
    },
    {
      "inputs": [],
      "name": "symbol",
      "outputs": [
        {
          "internalType": "string",
          "name": "",
          "type": "string"
        }
      ],
      "stateMutability": "view",
      "type": "function"
    },
    {
      "inputs": [],
      "name": "tld",
      "outputs": [
        {
          "internalType": "string",
          "name": "",
          "type": "string"
        }
      ],
      "stateMutability": "view",
      "type": "function"
    },
    {
      "inputs": [
        {
          "internalType": "uint256",
          "name": "tokenId",
          "type": "uint256"
        }
      ],
      "name": "tokenURI",
      "outputs": [
        {
          "internalType": "string",
          "name": "",
          "type": "string"
        }
      ],
      "stateMutability": "view",
      "type": "function"
    },
    {
      "inputs": [
        {
          "internalType": "address",
          "name": "from",
          "type": "address"
        },
        {
          "internalType": "address",
          "name": "to",
          "type": "address"
        },
        {
          "internalType": "uint256",
          "name": "tokenId",
          "type": "uint256"
        }
      ],
      "name": "transferFrom",
      "outputs": [],
      "stateMutability": "nonpayable",
      "type": "function"
    },
    {
      "inputs": [
        {
          "internalType": "string",
          "name": "name",
          "type": "string"
        }
      ],
      "name": "valid",
      "outputs": [
        {
          "internalType": "bool",
          "name": "",
          "type": "bool"
        }
      ],
      "stateMutability": "pure",
      "type": "function"
    },
    {
      "inputs": [],
      "name": "withdraw",
      "outputs": [],
      "stateMutability": "nonpayable",
      "type": "function"
    }
  ],
  "bytecode": "0x6080604052604051806080016040528060405180604001604052806040518060400160405280600781526020017f234646364639310000000000000000000000000000000000000000000000000081525081526020016040518060400160405280600781526020017f2346394638373100000000000000000000000000000000000000000000000000815250815250815260200160405180604001604052806040518060400160405280600781526020017f233243373344320000000000000000000000000000000000000000000000000081525081526020016040518060400160405280600781526020017f2330304439423300000000000000000000000000000000000000000000000000815250815250815260200160405180604001604052806040518060400160405280600781526020017f234142343637430000000000000000000000000000000000000000000000000081525081526020016040518060400160405280600781526020017f2333383446373100000000000000000000000000000000000000000000000000815250815250815260200160405180604001604052806040518060400160405280600781526020017f233030433942360000000000000000000000000000000000000000000000000081525081526020016040518060400160405280600781526020017f2339464542383900000000000000000000000000000000000000000000000000815250815250815250600a9060046200022f92919062000575565b5060405180610780016040528061075f815260200162005bd961075f9139600b908051906020019062000264929190620005d7565b506040518060400160405280602081526020017f222f3e3c73746f70206f66667365743d2231222073746f702d636f6c6f723d22815250600c9080519060200190620002b2929190620005d7565b5060405180610100016040528060de81526020016200633860de9139600d9080519060200190620002e5929190620005d7565b506040518060400160405280600d81526020017f3c2f746578743e3c2f7376673e00000000000000000000000000000000000000815250600e908051906020019062000333929190620005d7565b506040516200641638038062006416833981810160405281019062000359919062000944565b6040518060400160405280601481526020017f4b6972627920446f6d61696e20536572766963650000000000000000000000008152506040518060400160405280600381526020017f4b445300000000000000000000000000000000000000000000000000000000008152508160009080519060200190620003dd929190620005d7565b508060019080519060200190620003f6929190620005d7565b50505033600960006101000a81548173ffffffffffffffffffffffffffffffffffffffff021916908373ffffffffffffffffffffffffffffffffffffffff160217905550806008908051906020019062000452929190620005d7565b506200049f6040518060400160405280601881526020017f2573206e616d652073657276696365206465706c6f796564000000000000000081525082620004a660201b62001e071760201c565b5062000a92565b620005488282604051602401620004bf929190620009f2565b6040516020818303038152906040527f4b5c4277000000000000000000000000000000000000000000000000000000007bffffffffffffffffffffffffffffffffffffffffffffffffffffffff19166020820180517bffffffffffffffffffffffffffffffffffffffffffffffffffffffff83818316178352505050506200054c60201b60201c565b5050565b60008151905060006a636f6e736f6c652e6c6f679050602083016000808483855afa5050505050565b828054828255906000526020600020908101928215620005c4579160200282015b82811115620005c357825182906002620005b292919062000668565b509160200191906001019062000596565b5b509050620005d39190620006cf565b5090565b828054620005e59062000a5c565b90600052602060002090601f01602090048101928262000609576000855562000655565b82601f106200062457805160ff191683800117855562000655565b8280016001018555821562000655579182015b828111156200065457825182559160200191906001019062000637565b5b509050620006649190620006f7565b5090565b828054828255906000526020600020908101928215620006bc579160200282015b82811115620006bb578251829080519060200190620006aa929190620005d7565b509160200191906001019062000689565b5b509050620006cb919062000716565b5090565b5b80821115620006f35760008181620006e991906200073e565b50600101620006d0565b5090565b5b8082111562000712576000816000905550600101620006f8565b5090565b5b808211156200073a576000818162000730919062000761565b5060010162000717565b5090565b50805460008255906000526020600020908101906200075e919062000716565b50565b5080546200076f9062000a5c565b6000825580601f10620007835750620007a4565b601f016020900490600052602060002090810190620007a39190620006f7565b5b50565b6000604051905090565b600080fd5b600080fd5b600080fd5b600080fd5b6000601f19601f8301169050919050565b7f4e487b7100000000000000000000000000000000000000000000000000000000600052604160045260246000fd5b6200081082620007c5565b810181811067ffffffffffffffff82111715620008325762000831620007d6565b5b80604052505050565b600062000847620007a7565b905062000855828262000805565b919050565b600067ffffffffffffffff821115620008785762000877620007d6565b5b6200088382620007c5565b9050602081019050919050565b60005b83811015620008b057808201518184015260208101905062000893565b83811115620008c0576000848401525b50505050565b6000620008dd620008d7846200085a565b6200083b565b905082815260208101848484011115620008fc57620008fb620007c0565b5b6200090984828562000890565b509392505050565b600082601f830112620009295762000928620007bb565b5b81516200093b848260208601620008c6565b91505092915050565b6000602082840312156200095d576200095c620007b1565b5b600082015167ffffffffffffffff8111156200097e576200097d620007b6565b5b6200098c8482850162000911565b91505092915050565b600081519050919050565b600082825260208201905092915050565b6000620009be8262000995565b620009ca8185620009a0565b9350620009dc81856020860162000890565b620009e781620007c5565b840191505092915050565b6000604082019050818103600083015262000a0e8185620009b1565b9050818103602083015262000a248184620009b1565b90509392505050565b7f4e487b7100000000000000000000000000000000000000000000000000000000600052602260045260246000fd5b6000600282049050600182168062000a7557607f821691505b6020821081141562000a8c5762000a8b62000a2d565b5b50919050565b6151378062000aa26000396000f3fe6080604052600436106101b75760003560e01c80638da5cb5b116100ec578063c1880a981161008a578063f2c298be11610064578063f2c298be1461067c578063f317d7dd14610698578063fb825e5f146106d5578063fe2c619814610700576101b7565b8063c1880a98146105d9578063c87b56dd14610602578063e985e9c51461063f576101b7565b80639791c097116100c65780639791c0971461050d578063a22cb4651461054a578063b88d4fde14610573578063bf40fac11461059c576101b7565b80638da5cb5b1461048c5780638f32d59b146104b757806395d89b41146104e2576101b7565b80632d551432116101595780634622ab03116101335780634622ab0314610398578063541e771d146103d55780636352211e1461041257806370a082311461044f576101b7565b80632d5514321461032d5780633ccfd60b1461035857806342842e0e1461036f576101b7565b8063095ea7b311610195578063095ea7b31461026157806311dd88451461028a57806323b872dd146102c757806326449235146102f0576101b7565b806301ffc9a7146101bc57806306fdde03146101f9578063081812fc14610224575b600080fd5b3480156101c857600080fd5b506101e360048036038101906101de91906132ec565b61073d565b6040516101f09190613334565b60405180910390f35b34801561020557600080fd5b5061020e61081f565b60405161021b91906133e8565b60405180910390f35b34801561023057600080fd5b5061024b60048036038101906102469190613440565b6108b1565b60405161025891906134ae565b60405180910390f35b34801561026d57600080fd5b50610288600480360381019061028391906134f5565b610936565b005b34801561029657600080fd5b506102b160048036038101906102ac919061359a565b610a4e565b6040516102be91906133e8565b60405180910390f35b3480156102d357600080fd5b506102ee60048036038101906102e991906135e7565b610b01565b005b3480156102fc57600080fd5b506103176004803603810190610312919061376a565b610b61565b60405161032491906134ae565b60405180910390f35b34801561033957600080fd5b50610342610baa565b60405161034f91906133e8565b60405180910390f35b34801561036457600080fd5b5061036d610c38565b005b34801561037b57600080fd5b50610396600480360381019061039191906135e7565b610cfe565b005b3480156103a457600080fd5b506103bf60048036038101906103ba9190613440565b610d1e565b6040516103cc91906133e8565b60405180910390f35b3480156103e157600080fd5b506103fc60048036038101906103f7919061376a565b610dbe565b60405161040991906133e8565b60405180910390f35b34801561041e57600080fd5b5061043960048036038101906104349190613440565b610e74565b60405161044691906134ae565b60405180910390f35b34801561045b57600080fd5b50610476600480360381019061047191906137b3565b610f26565b60405161048391906137ef565b60405180910390f35b34801561049857600080fd5b506104a1610fde565b6040516104ae919061382b565b60405180910390f35b3480156104c357600080fd5b506104cc611004565b6040516104d99190613334565b60405180910390f35b3480156104ee57600080fd5b506104f761105c565b60405161050491906133e8565b60405180910390f35b34801561051957600080fd5b50610534600480360381019061052f919061359a565b6110ee565b6040516105419190613334565b60405180910390f35b34801561055657600080fd5b50610571600480360381019061056c9190613872565b6111a2565b005b34801561057f57600080fd5b5061059a60048036038101906105959190613953565b6111b8565b005b3480156105a857600080fd5b506105c360048036038101906105be919061359a565b61121a565b6040516105d091906134ae565b60405180910390f35b3480156105e557600080fd5b5061060060048036038101906105fb91906139d6565b611265565b005b34801561060e57600080fd5b5061062960048036038101906106249190613440565b611340565b60405161063691906133e8565b60405180910390f35b34801561064b57600080fd5b5061066660048036038101906106619190613a57565b611492565b6040516106739190613334565b60405180910390f35b6106966004803603810190610691919061359a565b611526565b005b3480156106a457600080fd5b506106bf60048036038101906106ba9190613a97565b611abe565b6040516106cc91906133e8565b60405180910390f35b3480156106e157600080fd5b506106ea611b83565b6040516106f79190613be3565b60405180910390f35b34801561070c57600080fd5b506107276004803603810190610722919061359a565b611d61565b60405161073491906137ef565b60405180910390f35b60007f80ac58cd000000000000000000000000000000000000000000000000000000007bffffffffffffffffffffffffffffffffffffffffffffffffffffffff1916827bffffffffffffffffffffffffffffffffffffffffffffffffffffffff1916148061080857507f5b5e139f000000000000000000000000000000000000000000000000000000007bffffffffffffffffffffffffffffffffffffffffffffffffffffffff1916827bffffffffffffffffffffffffffffffffffffffffffffffffffffffff1916145b80610818575061081782611ea3565b5b9050919050565b60606000805461082e90613c34565b80601f016020809104026020016040519081016040528092919081815260200182805461085a90613c34565b80156108a75780601f1061087c576101008083540402835291602001916108a7565b820191906000526020600020905b81548152906001019060200180831161088a57829003601f168201915b5050505050905090565b60006108bc82611f0d565b6108fb576040517f08c379a00000000000000000000000000000000000000000000000000000000081526004016108f290613cd8565b60405180910390fd5b6004600083815260200190815260200160002060009054906101000a900473ffffffffffffffffffffffffffffffffffffffff169050919050565b600061094182610e74565b90508073ffffffffffffffffffffffffffffffffffffffff168373ffffffffffffffffffffffffffffffffffffffff1614156109b2576040517f08c379a00000000000000000000000000000000000000000000000000000000081526004016109a990613d6a565b60405180910390fd5b8073ffffffffffffffffffffffffffffffffffffffff166109d1611f79565b73ffffffffffffffffffffffffffffffffffffffff161480610a0057506109ff816109fa611f79565b611492565b5b610a3f576040517f08c379a0000000000000000000000000000000000000000000000000000000008152600401610a3690613dfc565b60405180910390fd5b610a498383611f81565b505050565b606060108383604051610a62929190613e4c565b90815260200160405180910390208054610a7b90613c34565b80601f0160208091040260200160405190810160405280929190818152602001828054610aa790613c34565b8015610af45780601f10610ac957610100808354040283529160200191610af4565b820191906000526020600020905b815481529060010190602001808311610ad757829003601f168201915b5050505050905092915050565b610b12610b0c611f79565b8261203a565b610b51576040517f08c379a0000000000000000000000000000000000000000000000000000000008152600401610b4890613ed7565b60405180910390fd5b610b5c838383612118565b505050565b600f818051602081018201805184825260208301602085012081835280955050505050506000915054906101000a900473ffffffffffffffffffffffffffffffffffffffff1681565b60088054610bb790613c34565b80601f0160208091040260200160405190810160405280929190818152602001828054610be390613c34565b8015610c305780601f10610c0557610100808354040283529160200191610c30565b820191906000526020600020905b815481529060010190602001808311610c1357829003601f168201915b505050505081565b610c40611004565b610c4957600080fd5b600047905060003373ffffffffffffffffffffffffffffffffffffffff1682604051610c7490613f28565b60006040518083038185875af1925050503d8060008114610cb1576040519150601f19603f3d011682016040523d82523d6000602084013e610cb6565b606091505b5050905080610cfa576040517f08c379a0000000000000000000000000000000000000000000000000000000008152600401610cf190613f89565b60405180910390fd5b5050565b610d19838383604051806020016040528060008152506111b8565b505050565b60116020528060005260406000206000915090508054610d3d90613c34565b80601f0160208091040260200160405190810160405280929190818152602001828054610d6990613c34565b8015610db65780601f10610d8b57610100808354040283529160200191610db6565b820191906000526020600020905b815481529060010190602001808311610d9957829003601f168201915b505050505081565b6010818051602081018201805184825260208301602085012081835280955050505050506000915090508054610df390613c34565b80601f0160208091040260200160405190810160405280929190818152602001828054610e1f90613c34565b8015610e6c5780601f10610e4157610100808354040283529160200191610e6c565b820191906000526020600020905b815481529060010190602001808311610e4f57829003601f168201915b505050505081565b6000806002600084815260200190815260200160002060009054906101000a900473ffffffffffffffffffffffffffffffffffffffff169050600073ffffffffffffffffffffffffffffffffffffffff168173ffffffffffffffffffffffffffffffffffffffff161415610f1d576040517f08c379a0000000000000000000000000000000000000000000000000000000008152600401610f149061401b565b60405180910390fd5b80915050919050565b60008073ffffffffffffffffffffffffffffffffffffffff168273ffffffffffffffffffffffffffffffffffffffff161415610f97576040517f08c379a0000000000000000000000000000000000000000000000000000000008152600401610f8e906140ad565b60405180910390fd5b600360008373ffffffffffffffffffffffffffffffffffffffff1673ffffffffffffffffffffffffffffffffffffffff168152602001908152602001600020549050919050565b600960009054906101000a900473ffffffffffffffffffffffffffffffffffffffff1681565b6000600960009054906101000a900473ffffffffffffffffffffffffffffffffffffffff1673ffffffffffffffffffffffffffffffffffffffff163373ffffffffffffffffffffffffffffffffffffffff1614905090565b60606001805461106b90613c34565b80601f016020809104026020016040519081016040528092919081815260200182805461109790613c34565b80156110e45780601f106110b9576101008083540402835291602001916110e4565b820191906000526020600020905b8154815290600101906020018083116110c757829003601f168201915b5050505050905090565b6000600361113f84848080601f016020809104026020016040519081016040528093929190818152602001838380828437600081840152601f19601f8201169050808301925050505050505061237f565b1015801561119a5750600a61119784848080601f016020809104026020016040519081016040528093929190818152602001838380828437600081840152601f19601f8201169050808301925050505050505061237f565b11155b905092915050565b6111b46111ad611f79565b8383612534565b5050565b6111c96111c3611f79565b8361203a565b611208576040517f08c379a00000000000000000000000000000000000000000000000000000000081526004016111ff90613ed7565b60405180910390fd5b611214848484846126a1565b50505050565b6000600f838360405161122e929190613e4c565b908152602001604051809103902060009054906101000a900473ffffffffffffffffffffffffffffffffffffffff16905092915050565b600f8484604051611277929190613e4c565b908152602001604051809103902060009054906101000a900473ffffffffffffffffffffffffffffffffffffffff1673ffffffffffffffffffffffffffffffffffffffff163373ffffffffffffffffffffffffffffffffffffffff161461130a576040517f82b4290000000000000000000000000000000000000000000000000000000000815260040160405180910390fd5b81816010868660405161131e929190613e4c565b90815260200160405180910390209190611339929190613157565b5050505050565b606061134b82611f0d565b61138a576040517f08c379a00000000000000000000000000000000000000000000000000000000081526004016113819061413f565b60405180910390fd5b60006006600084815260200190815260200160002080546113aa90613c34565b80601f01602080910402602001604051908101604052809291908181526020018280546113d690613c34565b80156114235780601f106113f857610100808354040283529160200191611423565b820191906000526020600020905b81548152906001019060200180831161140657829003601f168201915b5050505050905060006114346126fd565b905060008151141561144a57819250505061148d565b60008251111561147f578082604051602001611467929190614190565b6040516020818303038152906040529250505061148d565b61148884612714565b925050505b919050565b6000600560008473ffffffffffffffffffffffffffffffffffffffff1673ffffffffffffffffffffffffffffffffffffffff16815260200190815260200160002060008373ffffffffffffffffffffffffffffffffffffffff1673ffffffffffffffffffffffffffffffffffffffff16815260200190815260200160002060009054906101000a900460ff16905092915050565b600073ffffffffffffffffffffffffffffffffffffffff16600f8383604051611550929190613e4c565b908152602001604051809103902060009054906101000a900473ffffffffffffffffffffffffffffffffffffffff1673ffffffffffffffffffffffffffffffffffffffff16146115cc576040517f3a81d6fc00000000000000000000000000000000000000000000000000000000815260040160405180910390fd5b6115d682826110ee565b6116195781816040517f7f19f48d0000000000000000000000000000000000000000000000000000000081526004016116109291906141e1565b60405180910390fd5b60006116258383611d61565b90508034101561166a576040517f08c379a000000000000000000000000000000000000000000000000000000000815260040161166190614251565b60405180910390fd5b60008383600860405160200161168293929190614351565b60405160208183030381529060405290506000600b600a6116a360076127bb565b815481106116b4576116b3614382565b5b906000526020600020016000815481106116d1576116d0614382565b5b90600052602060002001600c600a6116e960076127bb565b815481106116fa576116f9614382565b5b9060005260206000200160018154811061171757611716614382565b5b90600052602060002001600d86600e60405160200161173c97969594939291906143b1565b6040516020818303038152906040529050600061175960076127bb565b905060006117aa87878080601f016020809104026020016040519081016040528093929190818152602001838380828437600081840152601f19601f8201169050808301925050505050505061237f565b905060006117b7826127c9565b90506118ab6040518060600160405280603181526020016150586031913989898080601f016020809104026020016040519081016040528093929190818152602001838380828437600081840152601f19601f820116905080830192505050505050506008805461182790613c34565b80601f016020809104026020016040519081016040528092919081815260200182805461185390613c34565b80156118a05780601f10611875576101008083540402835291602001916118a0565b820191906000526020600020905b81548152906001019060200180831161188357829003601f168201915b50505050508661292a565b600061196b866118ba876129cc565b84600a6118c760076127bb565b815481106118d8576118d7614382565b5b906000526020600020016000815481106118f5576118f4614382565b5b90600052602060002001600a61190b60076127bb565b8154811061191c5761191b614382565b5b9060005260206000200160018154811061193957611938614382565b5b906000526020600020016040516020016119579594939291906146c2565b6040516020818303038152906040526129cc565b905060008160405160200161198091906147a6565b60405160208183030381529060405290506119b260405180606001604052806039815260200161501f60399139612b64565b6119f16040518060400160405280600e81526020017f46696e616c20746f6b656e55524900000000000000000000000000000000000081525082611e07565b611a1260405180606001604052806039815260200161508960399139612b64565b611a1c3386612bfd565b611a268582612c1b565b33600f8b8b604051611a39929190613e4c565b908152602001604051809103902060006101000a81548173ffffffffffffffffffffffffffffffffffffffff021916908373ffffffffffffffffffffffffffffffffffffffff1602179055508989601160008881526020019081526020016000209190611aa7929190613157565b50611ab26007612c8f565b50505050505050505050565b600a8281548110611ace57600080fd5b906000526020600020018181548110611ae657600080fd5b90600052602060002001600091509150508054611b0290613c34565b80601f0160208091040260200160405190810160405280929190818152602001828054611b2e90613c34565b8015611b7b5780601f10611b5057610100808354040283529160200191611b7b565b820191906000526020600020905b815481529060010190602001808311611b5e57829003601f168201915b505050505081565b6060611bc36040518060400160405280601f81526020017f47657474696e6720616c6c206e616d65732066726f6d20636f6e747261637400815250612b64565b6000611bcf60076127bb565b67ffffffffffffffff811115611be857611be761363f565b5b604051908082528060200260200182016040528015611c1b57816020015b6060815260200190600190039081611c065790505b50905060005b611c2b60076127bb565b811015611d5957601160008281526020019081526020016000208054611c5090613c34565b80601f0160208091040260200160405190810160405280929190818152602001828054611c7c90613c34565b8015611cc95780601f10611c9e57610100808354040283529160200191611cc9565b820191906000526020600020905b815481529060010190602001808311611cac57829003601f168201915b5050505050828281518110611ce157611ce0614382565b5b6020026020010181905250611d466040518060400160405280601781526020017f4e616d6520666f7220746f6b656e20256420697320257300000000000000000081525082848481518110611d3957611d38614382565b5b6020026020010151612ca5565b8080611d51906147f7565b915050611c21565b508091505090565b600080611db184848080601f016020809104026020016040519081016040528093929190818152602001838380828437600081840152601f19601f8201169050808301925050505050505061237f565b905060008111611dc057600080fd5b6003811415611dda576706f05b59d3b20000915050611e01565b6004811415611df457670429d069189e0000915050611e01565b67016345785d8a00009150505b92915050565b611e9f8282604051602401611e1d929190614840565b6040516020818303038152906040527f4b5c4277000000000000000000000000000000000000000000000000000000007bffffffffffffffffffffffffffffffffffffffffffffffffffffffff19166020820180517bffffffffffffffffffffffffffffffffffffffffffffffffffffffff8381831617835250505050612d44565b5050565b60007f01ffc9a7000000000000000000000000000000000000000000000000000000007bffffffffffffffffffffffffffffffffffffffffffffffffffffffff1916827bffffffffffffffffffffffffffffffffffffffffffffffffffffffff1916149050919050565b60008073ffffffffffffffffffffffffffffffffffffffff166002600084815260200190815260200160002060009054906101000a900473ffffffffffffffffffffffffffffffffffffffff1673ffffffffffffffffffffffffffffffffffffffff1614159050919050565b600033905090565b816004600083815260200190815260200160002060006101000a81548173ffffffffffffffffffffffffffffffffffffffff021916908373ffffffffffffffffffffffffffffffffffffffff160217905550808273ffffffffffffffffffffffffffffffffffffffff16611ff483610e74565b73ffffffffffffffffffffffffffffffffffffffff167f8c5be1e5ebec7d5bd14f71427d1e84f3dd0314c0f7b2291e5b200ac8c7c3b92560405160405180910390a45050565b600061204582611f0d565b612084576040517f08c379a000000000000000000000000000000000000000000000000000000000815260040161207b906148e9565b60405180910390fd5b600061208f83610e74565b90508073ffffffffffffffffffffffffffffffffffffffff168473ffffffffffffffffffffffffffffffffffffffff1614806120fe57508373ffffffffffffffffffffffffffffffffffffffff166120e6846108b1565b73ffffffffffffffffffffffffffffffffffffffff16145b8061210f575061210e8185611492565b5b91505092915050565b8273ffffffffffffffffffffffffffffffffffffffff1661213882610e74565b73ffffffffffffffffffffffffffffffffffffffff161461218e576040517f08c379a00000000000000000000000000000000000000000000000000000000081526004016121859061497b565b60405180910390fd5b600073ffffffffffffffffffffffffffffffffffffffff168273ffffffffffffffffffffffffffffffffffffffff1614156121fe576040517f08c379a00000000000000000000000000000000000000000000000000000000081526004016121f590614a0d565b60405180910390fd5b612209838383612d6d565b612214600082611f81565b6001600360008573ffffffffffffffffffffffffffffffffffffffff1673ffffffffffffffffffffffffffffffffffffffff16815260200190815260200160002060008282546122649190614a2d565b925050819055506001600360008473ffffffffffffffffffffffffffffffffffffffff1673ffffffffffffffffffffffffffffffffffffffff16815260200190815260200160002060008282546122bb9190614a61565b92505081905550816002600083815260200190815260200160002060006101000a81548173ffffffffffffffffffffffffffffffffffffffff021916908373ffffffffffffffffffffffffffffffffffffffff160217905550808273ffffffffffffffffffffffffffffffffffffffff168473ffffffffffffffffffffffffffffffffffffffff167fddf252ad1be2c89b69c2b068fc378daa952ba7f163c4a11628f55a4df523b3ef60405160405180910390a461237a838383612d72565b505050565b60008060008084519050600092505b808210156125295760008583815181106123ab576123aa614382565b5b602001015160f81c60f81b9050608060f81b817effffffffffffffffffffffffffffffffffffffffffffffffffffffffffffff191610156123fa576001836123f39190614a61565b9250612515565b60e060f81b817effffffffffffffffffffffffffffffffffffffffffffffffffffffffffffff1916101561243c576002836124359190614a61565b9250612514565b60f060f81b817effffffffffffffffffffffffffffffffffffffffffffffffffffffffffffff1916101561247e576003836124779190614a61565b9250612513565b60f8801b817effffffffffffffffffffffffffffffffffffffffffffffffffffffffffffff191610156124bf576004836124b89190614a61565b9250612512565b60fc60f81b817effffffffffffffffffffffffffffffffffffffffffffffffffffffffffffff19161015612501576005836124fa9190614a61565b9250612511565b60068361250e9190614a61565b92505b5b5b5b5b508280612521906147f7565b93505061238e565b829350505050919050565b8173ffffffffffffffffffffffffffffffffffffffff168373ffffffffffffffffffffffffffffffffffffffff1614156125a3576040517f08c379a000000000000000000000000000000000000000000000000000000000815260040161259a90614b03565b60405180910390fd5b80600560008573ffffffffffffffffffffffffffffffffffffffff1673ffffffffffffffffffffffffffffffffffffffff16815260200190815260200160002060008473ffffffffffffffffffffffffffffffffffffffff1673ffffffffffffffffffffffffffffffffffffffff16815260200190815260200160002060006101000a81548160ff0219169083151502179055508173ffffffffffffffffffffffffffffffffffffffff168373ffffffffffffffffffffffffffffffffffffffff167f17307eab39ab6107e8899845ad3d59bd9653f200f220920489ca2b5937696c31836040516126949190613334565b60405180910390a3505050565b6126ac848484612118565b6126b884848484612d77565b6126f7576040517f08c379a00000000000000000000000000000000000000000000000000000000081526004016126ee90614b95565b60405180910390fd5b50505050565b606060405180602001604052806000815250905090565b606061271f82611f0d565b61275e576040517f08c379a000000000000000000000000000000000000000000000000000000000815260040161275590614c27565b60405180910390fd5b60006127686126fd565b9050600081511161278857604051806020016040528060008152506127b3565b80612792846127c9565b6040516020016127a3929190614190565b6040516020818303038152906040525b915050919050565b600081600001549050919050565b60606000821415612811576040518060400160405280600181526020017f30000000000000000000000000000000000000000000000000000000000000008152509050612925565b600082905060005b6000821461284357808061282c906147f7565b915050600a8261283c9190614c76565b9150612819565b60008167ffffffffffffffff81111561285f5761285e61363f565b5b6040519080825280601f01601f1916602001820160405280156128915781602001600182028036833780820191505090505b5090505b6000851461291e576001826128aa9190614a2d565b9150600a856128b99190614ca7565b60306128c59190614a61565b60f81b8183815181106128db576128da614382565b5b60200101907effffffffffffffffffffffffffffffffffffffffffffffffffffffffffffff1916908160001a905350600a856129179190614c76565b9450612895565b8093505050505b919050565b6129c6848484846040516024016129449493929190614cd8565b6040516020818303038152906040527f9fd009f5000000000000000000000000000000000000000000000000000000007bffffffffffffffffffffffffffffffffffffffffffffffffffffffff19166020820180517bffffffffffffffffffffffffffffffffffffffffffffffffffffffff8381831617835250505050612d44565b50505050565b606060008251905060008114156129f55760405180602001604052806000815250915050612b5f565b60006003600283612a069190614a61565b612a109190614c76565b6004612a1c9190614d32565b90506000602082612a2d9190614a61565b67ffffffffffffffff811115612a4657612a4561363f565b5b6040519080825280601f01601f191660200182016040528015612a785781602001600182028036833780820191505090505b50905060006040518060600160405280604081526020016150c2604091399050600181016020830160005b86811015612b1c5760038101905062ffffff818a015116603f8160121c168401518060081b905060ff603f83600c1c1686015116810190508060081b905060ff603f8360061c1686015116810190508060081b905060ff603f831686015116810190508060e01b90508084526004840193505050612aa3565b506003860660018114612b365760028114612b4657612b51565b613d3d60f01b6002830352612b51565b603d60f81b60018303525b508484525050819450505050505b919050565b612bfa81604051602401612b7891906133e8565b6040516020818303038152906040527f41304fac000000000000000000000000000000000000000000000000000000007bffffffffffffffffffffffffffffffffffffffffffffffffffffffff19166020820180517bffffffffffffffffffffffffffffffffffffffffffffffffffffffff8381831617835250505050612d44565b50565b612c17828260405180602001604052806000815250612eff565b5050565b612c2482611f0d565b612c63576040517f08c379a0000000000000000000000000000000000000000000000000000000008152600401612c5a90614dfe565b60405180910390fd5b80600660008481526020019081526020016000209080519060200190612c8a9291906131dd565b505050565b6001816000016000828254019250508190555050565b612d3f838383604051602401612cbd93929190614e1e565b6040516020818303038152906040527fa3f5c739000000000000000000000000000000000000000000000000000000007bffffffffffffffffffffffffffffffffffffffffffffffffffffffff19166020820180517bffffffffffffffffffffffffffffffffffffffffffffffffffffffff8381831617835250505050612d44565b505050565b60008151905060006a636f6e736f6c652e6c6f679050602083016000808483855afa5050505050565b505050565b505050565b6000612d988473ffffffffffffffffffffffffffffffffffffffff16612f5a565b15612ef2578373ffffffffffffffffffffffffffffffffffffffff1663150b7a02612dc1611f79565b8786866040518563ffffffff1660e01b8152600401612de39493929190614eb8565b6020604051808303816000875af1925050508015612e1f57506040513d601f19601f82011682018060405250810190612e1c9190614f19565b60015b612ea2573d8060008114612e4f576040519150601f19603f3d011682016040523d82523d6000602084013e612e54565b606091505b50600081511415612e9a576040517f08c379a0000000000000000000000000000000000000000000000000000000008152600401612e9190614b95565b60405180910390fd5b805181602001fd5b63150b7a0260e01b7bffffffffffffffffffffffffffffffffffffffffffffffffffffffff1916817bffffffffffffffffffffffffffffffffffffffffffffffffffffffff191614915050612ef7565b600190505b949350505050565b612f098383612f7d565b612f166000848484612d77565b612f55576040517f08c379a0000000000000000000000000000000000000000000000000000000008152600401612f4c90614b95565b60405180910390fd5b505050565b6000808273ffffffffffffffffffffffffffffffffffffffff163b119050919050565b600073ffffffffffffffffffffffffffffffffffffffff168273ffffffffffffffffffffffffffffffffffffffff161415612fed576040517f08c379a0000000000000000000000000000000000000000000000000000000008152600401612fe490614f92565b60405180910390fd5b612ff681611f0d565b15613036576040517f08c379a000000000000000000000000000000000000000000000000000000000815260040161302d90614ffe565b60405180910390fd5b61304260008383612d6d565b6001600360008473ffffffffffffffffffffffffffffffffffffffff1673ffffffffffffffffffffffffffffffffffffffff16815260200190815260200160002060008282546130929190614a61565b92505081905550816002600083815260200190815260200160002060006101000a81548173ffffffffffffffffffffffffffffffffffffffff021916908373ffffffffffffffffffffffffffffffffffffffff160217905550808273ffffffffffffffffffffffffffffffffffffffff16600073ffffffffffffffffffffffffffffffffffffffff167fddf252ad1be2c89b69c2b068fc378daa952ba7f163c4a11628f55a4df523b3ef60405160405180910390a461315360008383612d72565b5050565b82805461316390613c34565b90600052602060002090601f01602090048101928261318557600085556131cc565b82601f1061319e57803560ff19168380011785556131cc565b828001600101855582156131cc579182015b828111156131cb5782358255916020019190600101906131b0565b5b5090506131d99190613263565b5090565b8280546131e990613c34565b90600052602060002090601f01602090048101928261320b5760008555613252565b82601f1061322457805160ff1916838001178555613252565b82800160010185558215613252579182015b82811115613251578251825591602001919060010190613236565b5b50905061325f9190613263565b5090565b5b8082111561327c576000816000905550600101613264565b5090565b6000604051905090565b600080fd5b600080fd5b60007fffffffff0000000000000000000000000000000000000000000000000000000082169050919050565b6132c981613294565b81146132d457600080fd5b50565b6000813590506132e6816132c0565b92915050565b6000602082840312156133025761330161328a565b5b6000613310848285016132d7565b91505092915050565b60008115159050919050565b61332e81613319565b82525050565b60006020820190506133496000830184613325565b92915050565b600081519050919050565b600082825260208201905092915050565b60005b8381101561338957808201518184015260208101905061336e565b83811115613398576000848401525b50505050565b6000601f19601f8301169050919050565b60006133ba8261334f565b6133c4818561335a565b93506133d481856020860161336b565b6133dd8161339e565b840191505092915050565b6000602082019050818103600083015261340281846133af565b905092915050565b6000819050919050565b61341d8161340a565b811461342857600080fd5b50565b60008135905061343a81613414565b92915050565b6000602082840312156134565761345561328a565b5b60006134648482850161342b565b91505092915050565b600073ffffffffffffffffffffffffffffffffffffffff82169050919050565b60006134988261346d565b9050919050565b6134a88161348d565b82525050565b60006020820190506134c3600083018461349f565b92915050565b6134d28161348d565b81146134dd57600080fd5b50565b6000813590506134ef816134c9565b92915050565b6000806040838503121561350c5761350b61328a565b5b600061351a858286016134e0565b925050602061352b8582860161342b565b9150509250929050565b600080fd5b600080fd5b600080fd5b60008083601f84011261355a57613559613535565b5b8235905067ffffffffffffffff8111156135775761357661353a565b5b6020830191508360018202830111156135935761359261353f565b5b9250929050565b600080602083850312156135b1576135b061328a565b5b600083013567ffffffffffffffff8111156135cf576135ce61328f565b5b6135db85828601613544565b92509250509250929050565b600080600060608486031215613600576135ff61328a565b5b600061360e868287016134e0565b935050602061361f868287016134e0565b92505060406136308682870161342b565b9150509250925092565b600080fd5b7f4e487b7100000000000000000000000000000000000000000000000000000000600052604160045260246000fd5b6136778261339e565b810181811067ffffffffffffffff821117156136965761369561363f565b5b80604052505050565b60006136a9613280565b90506136b5828261366e565b919050565b600067ffffffffffffffff8211156136d5576136d461363f565b5b6136de8261339e565b9050602081019050919050565b82818337600083830152505050565b600061370d613708846136ba565b61369f565b9050828152602081018484840111156137295761372861363a565b5b6137348482856136eb565b509392505050565b600082601f83011261375157613750613535565b5b81356137618482602086016136fa565b91505092915050565b6000602082840312156137805761377f61328a565b5b600082013567ffffffffffffffff81111561379e5761379d61328f565b5b6137aa8482850161373c565b91505092915050565b6000602082840312156137c9576137c861328a565b5b60006137d7848285016134e0565b91505092915050565b6137e98161340a565b82525050565b600060208201905061380460008301846137e0565b92915050565b60006138158261346d565b9050919050565b6138258161380a565b82525050565b6000602082019050613840600083018461381c565b92915050565b61384f81613319565b811461385a57600080fd5b50565b60008135905061386c81613846565b92915050565b600080604083850312156138895761388861328a565b5b6000613897858286016134e0565b92505060206138a88582860161385d565b9150509250929050565b600067ffffffffffffffff8211156138cd576138cc61363f565b5b6138d68261339e565b9050602081019050919050565b60006138f66138f1846138b2565b61369f565b9050828152602081018484840111156139125761391161363a565b5b61391d8482856136eb565b509392505050565b600082601f83011261393a57613939613535565b5b813561394a8482602086016138e3565b91505092915050565b6000806000806080858703121561396d5761396c61328a565b5b600061397b878288016134e0565b945050602061398c878288016134e0565b935050604061399d8782880161342b565b925050606085013567ffffffffffffffff8111156139be576139bd61328f565b5b6139ca87828801613925565b91505092959194509250565b600080600080604085870312156139f0576139ef61328a565b5b600085013567ffffffffffffffff811115613a0e57613a0d61328f565b5b613a1a87828801613544565b9450945050602085013567ffffffffffffffff811115613a3d57613a3c61328f565b5b613a4987828801613544565b925092505092959194509250565b60008060408385031215613a6e57613a6d61328a565b5b6000613a7c858286016134e0565b9250506020613a8d858286016134e0565b9150509250929050565b60008060408385031215613aae57613aad61328a565b5b6000613abc8582860161342b565b9250506020613acd8582860161342b565b9150509250929050565b600081519050919050565b600082825260208201905092915050565b6000819050602082019050919050565b600082825260208201905092915050565b6000613b1f8261334f565b613b298185613b03565b9350613b3981856020860161336b565b613b428161339e565b840191505092915050565b6000613b598383613b14565b905092915050565b6000602082019050919050565b6000613b7982613ad7565b613b838185613ae2565b935083602082028501613b9585613af3565b8060005b85811015613bd15784840389528151613bb28582613b4d565b9450613bbd83613b61565b925060208a01995050600181019050613b99565b50829750879550505050505092915050565b60006020820190508181036000830152613bfd8184613b6e565b905092915050565b7f4e487b7100000000000000000000000000000000000000000000000000000000600052602260045260246000fd5b60006002820490506001821680613c4c57607f821691505b60208210811415613c6057613c5f613c05565b5b50919050565b7f4552433732313a20617070726f76656420717565727920666f72206e6f6e657860008201527f697374656e7420746f6b656e0000000000000000000000000000000000000000602082015250565b6000613cc2602c8361335a565b9150613ccd82613c66565b604082019050919050565b60006020820190508181036000830152613cf181613cb5565b9050919050565b7f4552433732313a20617070726f76616c20746f2063757272656e74206f776e6560008201527f7200000000000000000000000000000000000000000000000000000000000000602082015250565b6000613d5460218361335a565b9150613d5f82613cf8565b604082019050919050565b60006020820190508181036000830152613d8381613d47565b9050919050565b7f4552433732313a20617070726f76652063616c6c6572206973206e6f74206f7760008201527f6e6572206e6f7220617070726f76656420666f7220616c6c0000000000000000602082015250565b6000613de660388361335a565b9150613df182613d8a565b604082019050919050565b60006020820190508181036000830152613e1581613dd9565b9050919050565b600081905092915050565b6000613e338385613e1c565b9350613e408385846136eb565b82840190509392505050565b6000613e59828486613e27565b91508190509392505050565b7f4552433732313a207472616e736665722063616c6c6572206973206e6f74206f60008201527f776e6572206e6f7220617070726f766564000000000000000000000000000000602082015250565b6000613ec160318361335a565b9150613ecc82613e65565b604082019050919050565b60006020820190508181036000830152613ef081613eb4565b9050919050565b600081905092915050565b50565b6000613f12600083613ef7565b9150613f1d82613f02565b600082019050919050565b6000613f3382613f05565b9150819050919050565b7f4661696c656420746f207769746864726177204d617469630000000000000000600082015250565b6000613f7360188361335a565b9150613f7e82613f3d565b602082019050919050565b60006020820190508181036000830152613fa281613f66565b9050919050565b7f4552433732313a206f776e657220717565727920666f72206e6f6e657869737460008201527f656e7420746f6b656e0000000000000000000000000000000000000000000000602082015250565b600061400560298361335a565b915061401082613fa9565b604082019050919050565b6000602082019050818103600083015261403481613ff8565b9050919050565b7f4552433732313a2062616c616e636520717565727920666f7220746865207a6560008201527f726f206164647265737300000000000000000000000000000000000000000000602082015250565b6000614097602a8361335a565b91506140a28261403b565b604082019050919050565b600060208201905081810360008301526140c68161408a565b9050919050565b7f45524337323155524953746f726167653a2055524920717565727920666f722060008201527f6e6f6e6578697374656e7420746f6b656e000000000000000000000000000000602082015250565b600061412960318361335a565b9150614134826140cd565b604082019050919050565b600060208201905081810360008301526141588161411c565b9050919050565b600061416a8261334f565b6141748185613e1c565b935061418481856020860161336b565b80840191505092915050565b600061419c828561415f565b91506141a8828461415f565b91508190509392505050565b60006141c0838561335a565b93506141cd8385846136eb565b6141d68361339e565b840190509392505050565b600060208201905081810360008301526141fc8184866141b4565b90509392505050565b7f4e6f7420656e6f756768204d6174696320706169640000000000000000000000600082015250565b600061423b60158361335a565b915061424682614205565b602082019050919050565b6000602082019050818103600083015261426a8161422e565b9050919050565b7f2e00000000000000000000000000000000000000000000000000000000000000600082015250565b60006142a7600183613e1c565b91506142b282614271565b600182019050919050565b60008190508160005260206000209050919050565b600081546142df81613c34565b6142e98186613e1c565b94506001821660008114614304576001811461431557614348565b60ff19831686528186019350614348565b61431e856142bd565b60005b8381101561434057815481890152600182019150602081019050614321565b838801955050505b50505092915050565b600061435e828587613e27565b91506143698261429a565b915061437582846142d2565b9150819050949350505050565b7f4e487b7100000000000000000000000000000000000000000000000000000000600052603260045260246000fd5b60006143bd828a6142d2565b91506143c982896142d2565b91506143d582886142d2565b91506143e182876142d2565b91506143ed82866142d2565b91506143f9828561415f565b915061440582846142d2565b915081905098975050505050505050565b7f7b226e616d65223a202200000000000000000000000000000000000000000000600082015250565b600061444c600a83613e1c565b915061445782614416565b600a82019050919050565b7f222c20226465736372697074696f6e223a20224120646f6d61696e206f6e207460008201527f6865204b6972627920446f6d61696e2073657276696365222c2022696d61676560208201527f223a2022646174613a696d6167652f7376672b786d6c3b6261736536342c0000604082015250565b60006144e4605e83613e1c565b91506144ef82614462565b605e82019050919050565b7f222c226c656e677468223a220000000000000000000000000000000000000000600082015250565b6000614530600c83613e1c565b915061453b826144fa565b600c82019050919050565b7f222c202261747472696275746573223a205b7b2274726169745f74797065223a60008201527f2022436f6c6f722031222c2276616c7565223a22000000000000000000000000602082015250565b60006145a2603483613e1c565b91506145ad82614546565b603482019050919050565b7f227d2c7b2274726169745f74797065223a2022436f6c6f722032222c2276616c60008201527f7565223a22000000000000000000000000000000000000000000000000000000602082015250565b6000614614602583613e1c565b915061461f826145b8565b602582019050919050565b7f227d5d0000000000000000000000000000000000000000000000000000000000600082015250565b6000614660600383613e1c565b915061466b8261462a565b600382019050919050565b7f7d00000000000000000000000000000000000000000000000000000000000000600082015250565b60006146ac600183613e1c565b91506146b782614676565b600182019050919050565b60006146cd8261443f565b91506146d9828861415f565b91506146e4826144d7565b91506146f0828761415f565b91506146fb82614523565b9150614707828661415f565b915061471282614595565b915061471e82856142d2565b915061472982614607565b915061473582846142d2565b915061474082614653565b915061474b8261469f565b91508190509695505050505050565b7f646174613a6170706c69636174696f6e2f6a736f6e3b6261736536342c000000600082015250565b6000614790601d83613e1c565b915061479b8261475a565b601d82019050919050565b60006147b182614783565b91506147bd828461415f565b915081905092915050565b7f4e487b7100000000000000000000000000000000000000000000000000000000600052601160045260246000fd5b60006148028261340a565b91507fffffffffffffffffffffffffffffffffffffffffffffffffffffffffffffffff821415614835576148346147c8565b5b600182019050919050565b6000604082019050818103600083015261485a81856133af565b9050818103602083015261486e81846133af565b90509392505050565b7f4552433732313a206f70657261746f7220717565727920666f72206e6f6e657860008201527f697374656e7420746f6b656e0000000000000000000000000000000000000000602082015250565b60006148d3602c8361335a565b91506148de82614877565b604082019050919050565b60006020820190508181036000830152614902816148c6565b9050919050565b7f4552433732313a207472616e736665722066726f6d20696e636f72726563742060008201527f6f776e6572000000000000000000000000000000000000000000000000000000602082015250565b600061496560258361335a565b915061497082614909565b604082019050919050565b6000602082019050818103600083015261499481614958565b9050919050565b7f4552433732313a207472616e7366657220746f20746865207a65726f2061646460008201527f7265737300000000000000000000000000000000000000000000000000000000602082015250565b60006149f760248361335a565b9150614a028261499b565b604082019050919050565b60006020820190508181036000830152614a26816149ea565b9050919050565b6000614a388261340a565b9150614a438361340a565b925082821015614a5657614a556147c8565b5b828203905092915050565b6000614a6c8261340a565b9150614a778361340a565b9250827fffffffffffffffffffffffffffffffffffffffffffffffffffffffffffffffff03821115614aac57614aab6147c8565b5b828201905092915050565b7f4552433732313a20617070726f766520746f2063616c6c657200000000000000600082015250565b6000614aed60198361335a565b9150614af882614ab7565b602082019050919050565b60006020820190508181036000830152614b1c81614ae0565b9050919050565b7f4552433732313a207472616e7366657220746f206e6f6e20455243373231526560008201527f63656976657220696d706c656d656e7465720000000000000000000000000000602082015250565b6000614b7f60328361335a565b9150614b8a82614b23565b604082019050919050565b60006020820190508181036000830152614bae81614b72565b9050919050565b7f4552433732314d657461646174613a2055524920717565727920666f72206e6f60008201527f6e6578697374656e7420746f6b656e0000000000000000000000000000000000602082015250565b6000614c11602f8361335a565b9150614c1c82614bb5565b604082019050919050565b60006020820190508181036000830152614c4081614c04565b9050919050565b7f4e487b7100000000000000000000000000000000000000000000000000000000600052601260045260246000fd5b6000614c818261340a565b9150614c8c8361340a565b925082614c9c57614c9b614c47565b5b828204905092915050565b6000614cb28261340a565b9150614cbd8361340a565b925082614ccd57614ccc614c47565b5b828206905092915050565b60006080820190508181036000830152614cf281876133af565b90508181036020830152614d0681866133af565b90508181036040830152614d1a81856133af565b9050614d2960608301846137e0565b95945050505050565b6000614d3d8261340a565b9150614d488361340a565b9250817fffffffffffffffffffffffffffffffffffffffffffffffffffffffffffffffff0483118215151615614d8157614d806147c8565b5b828202905092915050565b7f45524337323155524953746f726167653a2055524920736574206f66206e6f6e60008201527f6578697374656e7420746f6b656e000000000000000000000000000000000000602082015250565b6000614de8602e8361335a565b9150614df382614d8c565b604082019050919050565b60006020820190508181036000830152614e1781614ddb565b9050919050565b60006060820190508181036000830152614e3881866133af565b9050614e4760208301856137e0565b8181036040830152614e5981846133af565b9050949350505050565b600081519050919050565b600082825260208201905092915050565b6000614e8a82614e63565b614e948185614e6e565b9350614ea481856020860161336b565b614ead8161339e565b840191505092915050565b6000608082019050614ecd600083018761349f565b614eda602083018661349f565b614ee760408301856137e0565b8181036060830152614ef98184614e7f565b905095945050505050565b600081519050614f13816132c0565b92915050565b600060208284031215614f2f57614f2e61328a565b5b6000614f3d84828501614f04565b91505092915050565b7f4552433732313a206d696e7420746f20746865207a65726f2061646472657373600082015250565b6000614f7c60208361335a565b9150614f8782614f46565b602082019050919050565b60006020820190508181036000830152614fab81614f6f565b9050919050565b7f4552433732313a20746f6b656e20616c7265616479206d696e74656400000000600082015250565b6000614fe8601c8361335a565b9150614ff382614fb2565b602082019050919050565b6000602082019050818103600083015261501781614fdb565b905091905056fe0a2d2d2d2d2d2d2d2d2d2d2d2d2d2d2d2d2d2d2d2d2d2d2d2d2d2d2d2d2d2d2d2d2d2d2d2d2d2d2d2d2d2d2d2d2d2d2d2d2d2d2d2d2d2d2d2d5265676973746572696e672025732e2573206f6e2074686520636f6e7472616374207769746820746f6b656e49442025642d2d2d2d2d2d2d2d2d2d2d2d2d2d2d2d2d2d2d2d2d2d2d2d2d2d2d2d2d2d2d2d2d2d2d2d2d2d2d2d2d2d2d2d2d2d2d2d2d2d2d2d2d2d2d2d0a4142434445464748494a4b4c4d4e4f505152535455565758595a6162636465666768696a6b6c6d6e6f707172737475767778797a303132333435363738392b2fa26469706673582212207a5a97e2f69115e3e68d007965f87a2e25067c5f7770bc447b070a3e1e5cbf0964736f6c634300080a00333c73766720786d6c6e733d22687474703a2f2f7777772e77332e6f72672f323030302f737667222077696474683d2232373022206865696768743d22323730222066696c6c3d226e6f6e65223e3c706174682066696c6c3d2275726c282342292220643d224d302030683237307632373048307a222f3e3c646566733e3c66696c7465722069643d22412220636f6c6f722d696e746572706f6c6174696f6e2d66696c746572733d2273524742222066696c746572556e6974733d227573657253706163654f6e55736522206865696768743d22323730222077696474683d22323730223e3c666544726f70536861646f772064783d2230222064793d22312220737464446576696174696f6e3d22322220666c6f6f642d6f7061636974793d222e323235222077696474683d223230302522206865696768743d2232303025222f3e3c2f66696c7465723e3c2f646566733e3c7061746820643d224d37322e3836332034322e393439632d2e3636382d2e3338372d312e3432362d2e35392d322e3139372d2e3539732d312e3532392e3230342d322e3139372e35396c2d31302e30383120362e3033322d362e383520332e3933342d31302e30383120362e303332632d2e3636382e3338372d312e3432362e35392d322e3139372e3539732d312e3532392d2e3230342d322e3139372d2e35396c2d382e3031332d342e37323161342e353220342e35322030203020312d312e3538392d312e363136632d2e3338342d2e3636352d2e3539342d312e3431382d2e3630382d322e313837762d392e3331632d2e3031332d2e3737352e3138352d312e3533382e3537322d322e32303861342e323520342e323520302030203120312e3632352d312e3539356c372e3838342d342e3539632e3636382d2e33383720312e3432362d2e353920322e3139372d2e353973312e3532392e32303420322e3139372e35396c372e38383420342e353961342e353220342e353220302030203120312e35383920312e363136632e3338342e3636352e35393420312e3431382e36303820322e31383776362e3033326c362e38352d342e303635762d362e303332632e3031332d2e3737352d2e3138352d312e3533382d2e3537322d322e32303861342e323520342e32352030203020302d312e3632352d312e3539354c34312e3435362032342e3539632d2e3636382d2e3338372d312e3432362d2e35392d322e3139372d2e3539732d312e3532392e3230342d322e3139372e35396c2d31342e38363420382e36353561342e323520342e32352030203020302d312e36323520312e353935632d2e3338372e36372d2e35383520312e3433342d2e35373220322e3230387631372e343431632d2e3031332e3737352e31383520312e3533382e35373220322e32303861342e323520342e323520302030203020312e36323520312e3539356c31342e38363420382e363535632e3636382e33383720312e3432362e353920322e3139372e353973312e3532392d2e32303420322e3139372d2e35396c31302e3038312d352e39303120362e38352d342e3036352031302e3038312d352e393031632e3636382d2e33383720312e3432362d2e353920322e3139372d2e353973312e3532392e32303420322e3139372e35396c372e38383420342e353961342e353220342e353220302030203120312e35383920312e363136632e3338342e3636352e35393420312e3431382e36303820322e31383776392e333131632e3031332e3737352d2e31383520312e3533382d2e35373220322e32303861342e323520342e32352030203020312d312e36323520312e3539356c2d372e38383420342e373231632d2e3636382e3338372d312e3432362e35392d322e3139372e3539732d312e3532392d2e3230342d322e3139372d2e35396c2d372e3838342d342e353961342e353220342e35322030203020312d312e3538392d312e363136632d2e3338352d2e3636352d2e3539342d312e3431382d2e3630382d322e313837762d362e3033326c2d362e383520342e30363576362e303332632d2e3031332e3737352e31383520312e3533382e35373220322e32303861342e323520342e323520302030203020312e36323520312e3539356c31342e38363420382e363535632e3636382e33383720312e3432362e353920322e3139372e353973312e3532392d2e32303420322e3139372d2e35396c31342e3836342d382e363535632e3635372d2e33393420312e3230342d2e393520312e3538392d312e363136732e3539342d312e3431382e3630392d322e3138375635352e353338632e3031332d2e3737352d2e3138352d312e3533382d2e3537322d322e32303861342e323520342e32352030203020302d312e3632352d312e3539356c2d31342e3939332d382e3738367a222066696c6c3d2223666666222f3e3c646566733e3c6c696e6561724772616469656e742069643d2242222078313d2230222079313d2230222078323d22323730222079323d2232373022206772616469656e74556e6974733d227573657253706163654f6e557365223e3c73746f702073746f702d636f6c6f723d22222073746f702d6f7061636974793d222e3939222f3e3c2f6c696e6561724772616469656e743e3c2f646566733e3c7465787420783d2233322e352220793d223233312220666f6e742d73697a653d223237222066696c6c3d2223666666222066696c7465723d2275726c282341292220666f6e742d66616d696c793d22506c7573204a616b617274612053616e732c44656a6156752053616e732c4e6f746f20436f6c6f7220456d6f6a692c4170706c6520436f6c6f7220456d6f6a692c73616e732d73657269662220666f6e742d7765696768743d22626f6c64223e",
  "linkReferences": {},
  "deployedLinkReferences": {}
}